:400000000080002011000000B5100000B510000008B501F051F8C04638B51222294B1A6003F0E4FD284803F06BFB03F08DFB302003F0B0FC254A264B1A60264C8025ED050F
:400040002560C0229200244B1A60244B244A1A60FE22120223490A602349196023490A60234A1A6088218901224A1160224A1A60A021C900214A1160214A1A6080221206A0
:40008000204B1A608022D2021F4B1A6042231F4A13601F4A13601F4A136040221E4B1A6001321E4B1A6003321D4B1A60013A1D4B1A6008201C4903F099FB082003F080FBCF
:4000C000256038BD30001040001BB7000600008004010B400C020B40080301400000014042FF00800003014040FF00800403014041FF00801003014044FF00800C03014045
:4001000043FF008008010B4000010B4034010140300101402C0101401C010140180101400C01014008010140D93C000010B572B601223C4B1A70002410E03B4863001A1954
:400140005200821891881B195B001A5AC31858880004104301F018F80134E4B2012CECD93149081C0C30383100F0F4FF2F4A304B1A60EE222F4B1A602F4A304B1A609923E5
:400180001B042F4A1360B82149042E4A11602E4A13602E4A13608A21C9032D4A11602D4A136001222C4B1A602C4B187801320221014319702A4C21783C20814328380143F5
:4001C00021701878162101431970432325490B6025490B600321254B1960254B1A60254B1A60DB210901244B1960244B1A60F532234B1A60D33A234B1A60D032224B1A601D
:40020000D83A224B1A6092225201214B1A60FC23204A1360204A1360FFF7FEFE00F0DAFF10BDC0461C700F40A046000090EE0000000302400004024000330300000502402A
:4002400000500F4008500F4040500F4050500F4058500F4070500F402000104000700F4001700F400000044018000440000D04400C0D044000030440080304401803044032
:400280000004044008040440180404400005044008050440000704401807044010B5064C2378002B07D1054B002B02D0044800E000BF0123237010BD8001002000000000EC
:4002C0002044000008B5084B002B03D00748084900E000BF07480368002B00D108BD064B002BFBD09847F9E7000000002044000084010020C80000200000000008B502F02C
:40030000B1FF114803F014F803F0A6F803F018F903F08AF90020FA21490000F09DF8062003F02AF8062003F00FF8062003F018F802F0E8FB02F056FC0020012101F02EF8AB
:4003400002F03EFB08BDC04624440000F8B562B6FFF7D4FF00250326002401F0D5F8012803D101F063F8041C0DE0012C06D1344802F0DEFF0020334900F06EF80022324B2B
:400380001A700326002402F0D5F900283BD1032E39D102F039FE02F0A5FC071C02F010FBF8B200F055FD071C00F0D4F8381C00F0A5FD002C24D0012001F096F8002804D1ED
:4003C000023001F091F800280AD0002D08D103201C4900F041F81D4802F0AAFF013512E0002D0AD101201A49082201F02FF802201849042201F02AF805E0002D02D102E01F
:40040000002500E00026002DA7D0032EA5D0012001F012F8012805D10D49082201F016F802231E43022001F007F8012895D101300849042201F00AF801231E438DE7C046EC
:400440003C440000606D0000C502002050440000C0010020C801002010B5002803D10022394B1A7005E0384B01221A705870374B1980082866D88000354B1B589F4600201B
:4004800002F096FF002003F07BF8002003F004F858E02E4C208802F08BFF208803F070F8208802F0F9FF4DE0284C208802F080FF208803F065F8002002F0EEFF42E0234C73
:4004C0002088800802F074FF208803F059F8002002F0E2FF36E0002002F06AFF1B4B188803F04EF8002002F0D7FF2BE0002002F05FFF002003F044F8144B188802F0CCFF4A
:4005000020E0124C208802F053FF002003F038F8208802F0C1FF15E00C4C208802F048FF002003F02DF82088400802F0B5FF09E0064B188802F03CFF002003F021F8002085
:4005400002F0AAFF10BDC0469C010020CC0000206C44000008B59D4B1B68102B10D19C4B1B78002B05D09B4B19880020FFF774FF2AE1974B5878974B1988FFF76DFF23E140
:40058000934B1B78002B00D11EE10B2831D002D80A2806D012E10C2853D00D2800D1AEE00CE18B4B5A78072A1FD893008A4AD3589F460222864B5A7000E10322844B5A7049
:4005C000FCE00422824B5A70F8E00522804B5A70F4E006227E4B5A70F0E007227C4B5A70ECE001227A4B5A70E8E00122784B5A70E4E0774B5A78072A1FD89300774AD358C0
:400600009F460722724B5A70D8E00122704B5A70D4E002226E4B5A70D0E003226C4B5A70CCE004226A4B5A70C8E00522684B5A70C4E00622664B5A70C0E00722644B5A70EE
:40064000BCE0644B1B88FA22520193423AD012D8FA229200934226D004D8F53AFF3A93421CD048E0FA22D200934221D0FA221201934222D03FE05A4A934230D007D8594AEA
:40068000934223D0FA229201934224D033E0564A934228D0554A934229D02CE0FA2292004C4B1A808AE0FA22D2004A4B1A8085E0FA221201474B1A8080E0FA225201454B7C
:4006C0001A807BE0474A434B1A8077E0FA229201404B1A8072E0424A3E4B1A806EE0424A3C4B1A806AE0414A3A4B1A8066E03F4A384B1A8062E03A4A364B1A805EE0354BA6
:400700001B88FA22520193423AD012D8FA229200934226D004D8F53AFF3A93421CD04AE0FA22D200934221D0FA221201934222D041E02B4A934231D007D82A4A934224D004
:40074000FA229201934225D035E0274A93422AD0264A93422BD02EE0FA2252001D4B1A802CE0FA2252001B4B1A8027E0FA229200184B1A8022E0FA22D200164B1A801DE0D9
:40078000FA221201134B1A8018E0FA225201114B1A8013E0134A0F4B1A800FE0FA2292010C4B1A800AE00E4A0A4B1A8006E00E4A084B1A8002E00A4A064B1A80044B587846
:4007C000044B1988FFF748FE08BDC046940200209C010020CC00002090440000B0440000204E0000E02E0000C05D0000606D0000830603D503070BD003200EE0C30603D57D
:40080000030707D0012008E0002805D1FF3004E0042002E0002000E002207047830603D55A2924DDB43922E00F23034018D00A2B14D89B000F4AD3589F46432117E02D21DF
:4008400015E0162113E0002111E0162149420EE02D2149420BE04321494208E0FA2106E0002803D1FA2102E05A2100E00021081C7047C046D04400002223FF33984231D03F
:400880000FD8E92834D004D8B62825D0CE2835D020E00223FF33984224D00F3398421FD018E05023FF3398421CD007D81B3B984214D04623FF3398421AD00BE06823FF3305
:4008C000984215D08A23FF3398420BD06623FF3398420DD010201AE0072018E0062016E0052014E0FF290BD002290BD80B200EE0FF2909D0022909D80A2008E0082006E05E
:40090000102004E00D2002E0102000E00C20704770B5041C0D1C30230340302B01D1203B9C4303232340032B32D1A30612D506232B40042B02D1023B9C4329E0002B02D133
:4009400001339C4324E003239C432F4A126813401C431DE0002002F04FF9061C012002F04BF9864202D902239C4311E0002002F043F9061C012002F03FF9864202D20123D3
:400980009C4305E003239C431F4A126813401C430C2323400C2B32D1A30612D506231D40062D02D102339C4329E0022D02D104239C4324E00C239C43134A126813401C4331
:4009C0001DE0022002F018F9051C032002F014F9854202D908239C4311E0022002F00CF9051C032002F008F9854202D204239C4305E00C239C43044A126813401C43024B4A
:400A00001C60201C70BDC046A0010020FA281BD000280DDA43422D2B05DD5A3040000C4B185E404212E05B00094AD05E40420DE02D2805DD5A23181A4000054B185E05E008
:400A40004000034B185E01E0FA2080007047C0461C450000FA2810D0002800DA40422D2805DD2D384000064B185E404207E02D23181A4000024B185E01E0FA208000704790
:400A80001C45000010B5041C081C16305A2801DD9E39081CFFF7DEFF60438000001210BD10B5041C081C16305A2801DD9E39081CFFF7ACFF60438000001210BD08B5FA2929
:400AC0000DD000280DD0081E04DB2D2103F088FB013007E02D2103F083FB043002E0FF2000E0002008BDC046F8B5051C0C1CC84B1A68072A00D983E19300C64AD3589F46C8
:400B0000FA2900D17EE1C44B58609960FFF7D6FFBF4B586002221A60002088E1FA292ED0BD4BDB68FA229200934207D9B84B5B689B00BA4A9A58BA4B1A6002E00133B64A33
:400B4000D360B54B5A68521B00D55242B24B9B681B1B00D55B42152B01DC012A05DD0322AB4B1A600022AC4BDA60AB4B1B69EB1AAC4A11688C4663441360002057E1A64BCD
:400B8000DB68632B06D8A24B5B689B00A34A9A58A34B1A6007229E4B1A60002047E1FA293BD09D4B5B69CB1A2D2B01DDB43B03E01A1C2D3200DAB4339B4A11688C4663442C
:400BC0001360954B1B69EB1A964A11688C4663441360281C211CFFF771FF8D4B5A68824216D08D498B6901338B61032B00D80BE1002A03D10632864B1A6002E00422844B75
:400C00001A60834B98600022834B9A6100200EE10022814B9A61002009E107227C4B1A60002004E1FA2955D07B4B5B69CB1A2D2B01DDB43B03E01A1C2D3200DAB4337A4A3F
:400C400011688C4663441360734B1B69EB1A754A11688C4663441360281C211CFFF72EFF6B4B9B68834230D06B498A6901328A61032A00D8CAE0664E05223260F0606749A1
:400C8000800008184769F800C0194000C0199B00CB185A6913019A18821873689B00CB185B695800C0188000C318D0185A4B5968FFF7E2FD021CD31FDBB2012B01D8564B4B
:400CC0001A770022544B9A61B1E00022524B9A610020ACE007224E4B1A600020A7E0FA2959D04D4B5B69CB1A2D2B01DDB43B03E01A1C2D3200DAB4334B4A11688C4663445B
:400D00001360454B1B69EB1A464A11688C4663441360281C211CFFF7D1FE3D4BDB68834234D03D498A6901328A61032A00D87DE0374A916851609360D060384E80003018C3
:400D40004769F800C0194000C0199B00F3185A6913019A188218890071184B695800C0188000C318D0182C4B5968FFF785FD021CD31FDBB2012B02D8274B1A7702E000227D
:400D8000254B1A770022244B9A6150E0224B00229A61187F4BE007221D4B1A60002046E0FA2911D01C4B5B69CB1A2D2B01DDB43B03E01A1C2D3200DAB4331B4A11688C46B7
:400DC00063441360092032E00722114B1A6000202DE0114A00239361D3600D49FF2088604860C8605060053890600E4803600E4803600B480360137701330B60002016E05C
:400E0000002014E0002012E0002010E000200EE0D0000020FC440000A00100207845000094020020A80200208C0200200020064B1B680133022B02D9FF22044B5A60034BEA
:400E40001D615C61F8BDC046A8020020A001002070B5002804D0234B1B781F251D4000E00025002001F0E2FF061C041E1E4B9C4209D020231D43162103F022F9011C2C2E74
:400E800002D80A3400E00021281CFFF741FD061CFFF7AEFC051C154B1860301C211CFFF7BDFC011C124C2060281CFFF71DFE051C2468FA2C0ED00D4B1E68301C211CFFF750
:400EC000E1FD0C4B1860301C211CFFF7E9FD0A4B186004E00023074A1360074A1360281C70BDC04644020020FFFF000090020020A0020020A40200209C02002038B5041CA4
:400F00005B4B00221A709A70002304E0584AD218002111720133032BF8D9564B1B68022B0BD0102B12D0012B18D1514A117A0B431372514802F0FCF910E04D4A117A0223DD
:400F40000B4313724D4802F0F3F907E0484A117A04230B4313724A4802F0EAF9631FDAB2082A00D980E09300464AD3589F46464802F0DEF93E4B197803220A431A702B2260
:400F80009A7071E0414802F0D3F9394B197801220A431A702B229A7066E0354B1B7B072B08D0334B00221A610432DA72384802F0BFF959E02E4A136901331361092B53D9C7
:400FC000151C00231361324802F0B2F90123EB724AE0274B1B7B082B08D0254B00221A61FC32DA722B4802F0A3F93DE0204A136901331361092B37D9151C002313612548A8
:4010000002F096F9FF23EB722EE0194B1B7B092B02D0214802F08CF9154A204B1B785BB2D90FCB185B1053721D4B1B785BB25B42D90FCB185B10937216E01A4802F078F9C2
:4010400012E0194802F074F90EE0094B1B7B0C2B0AD0164802F06CF906E0054B1B7B0D2B02D0134802F064F9014B1C7338BDC046C001002094020020C4450000D445000011
:40108000E4450000A0450000F445000004460000144600002046000030460000A40200209C02002040460000544600007046000084460000FEE7C04670B50F4E0F4D13E089
:4010C00029686B68AC68002202E001C901C30432A242FAD1E868002202E0002102C304328242FAD11035013E002EE9D103F06AF9FFF72CF9FEE7C04601000000904C00005D
:4011000008B50F4A136801218B43136000230AE0032B03D89A000B49505800E00A4899000A4A885001332F2BF2D9FEF7FFFF0022074B1A60024A116801230B43136008BD6F
:401140000000104000000000B510000000000020C0000020F0B50025002711E0BB00C658F3B2FF22964308E06A008A181478A419527822700135013BDBB2002BF4D1013740
:401180000A2FEBD9F0BDC04608B50A1C002103F03FF908BD0C4B1B68002803D080221206134301E05B005B08074A1360074B1B68002803D080229204134301E0044A134063
:4011C000024A13607047C04680033A4008010B40FFFFFFFD08B50323054A1360054A13600022054B1A600120FFF7D4FF08BDC0463000304030003140000E3F4010B501226A
:40120000244B1A60244A136820218B4313600A22224B1A60224C234B23602368224A134323602368042293432360022002F0A8FB236808229343236002F0B8FA002800D0AD
:4012400002201A4B18601A4A1A4B1A6007221A4B1A601E20032102F0DBFA1E20174902F0C5FA1F20032102F0D3FA1F20144902F0BDFA0020032102F0CBFA0020114902F0DE
:40128000B5FA0520032102F0C3FA05200E4902F0ADFA10BD74022C4048002C4030032C4000202C40030000040C0000B824002C401A00050030202C4028202C40251A0000BB
:4012C000A51A0000651A00008D1D000010B50C1C002304E00121234AD1540133DBB2012BF8D9214B18700023204A1370204A1370204A1370204A1370204A1370204A1370FB
:40130000204A13701E2002F05BFA002002F058FA1F2002F055FA002C02D0012C06D00BE0194A136801218B4313600AE0164A116801230B43136004E0134A116801230B4356
:40134000136011490B68042293430B6000210F4B196001310E4B19607F310E4B19600E4B1A6010BD4C030020C0020020C6020020C4020020C5020020C1020020AC020020F5
:40138000C30200203C03002024002C40A4002C40A0002C4020002C4048002C4038B5051C0C1C074B1B78002B04D1FFF727FF0122034B1A70281C211CFFF788FF38BDC046D2
:4013C000D4010020002304E001210E4AD1540133DBB2012BF8D900230B4A13700B4A13700B4A13700B4A13700B4A13700B4A13700B4A137001220B4B1A607F320A4B1A6016
:401400007047C0464C030020C6020020C4020020C5020020C1020020AC020020C30200203C030020A0002C4020002C40014B1878C0B27047C5020020430018188000024B12
:4014400018184078C0B27047D0020020F0B5431E072B41D8061C43001B189B001F4CE318DC8880239B001B1B9A4209D943001B189B001A4AD318DA8880239B009A1A92B2F1
:40148000140A43001B189B00144DEB18DB781C438301134D5C51D4B2AC4663445C60002909D10BE0CD5CB4010E4FBC466444256201339BB200E000239342F3D343001B188C
:4014C0009B00064AD31800225A705B79DBB28001034A944660448360F0BDC046D0020020F0FF2B40C0012C40431E072B07D88001044B9C46604483681020184000E0002033
:40150000C0B27047F0FF2B40024B18684007C00F7047C046040D044010B51E4B1B781E4A1188CB189BB2138000210EE01B4B5A681278D2B28C001A4822505A6801325A605A
:4015400001311A88013A92B21A80144B1B889BB2002B01D00729E9D90E4B1B78082B01D000290BD00F4A10788023434013700F220D4B1A700D3A0D4B1A7004E002230A4A2A
:4015800013700A4A1370C9B2094B1970014B197010BDC0463C03002042030020B402002000002C40C2020020AD020020C60200203D0300200222074B1A707E32064B1A7045
:4015C000713A064B1A700023054A1370054A137001207047C6020020C2020020AD0200203C0300203D03002008B5FFF795FF08BD30B5184B1B680F2119400239CBB2164AF4
:401600001088C3189BB2138000200FE0134B5C688500134AAA58D2B222705A6801325A60013001391A88013A92B21A800B4B1B889BB2002B01D00029E8D1C9B2094B1970DB
:40164000094A117880234B4013700B22074B1A7030BDC046A4002C4042030020B402002000002C403D030020C2020020AD0200200623064A1370064A13708022054B1A70CC
:401680000022054B1A7001207047C046C6020020AD020020C20200203D030020064B9B68002B08D0044B9A6810709A6803490988518000229A607047B4020020420300206F
:4016C00008B5144B1A68FF210A401A601B68DAB21B0602D5104B1A701BE00220FFF7DEFF0E4B1B6860221340202B06D0402B07D0002B08D100F02AFE06E002F03FFB03E067
:4017000000F0AAFF00E00020002802D10322024B1A7008BDA0002C40AD02002000002C4008B5084B1B78084A1188CB189BB213800022064B1A700120FFF7B0FF0322044B85
:401740001A7008BD3C03002042030020C6020020AD02002008B50B4B1B78DBB2042B06D0062B07D0022B0BD1FFF7DAFF08E0FFF73FFF05E00320FFF791FF0322024B1A70E1
:4017800008BDC046C6020020AD02002008B50022044B1A700120FFF781FF0322024B1A7008BDC046C6020020AD02002008B50B4B1B78002B07D0094A117880230B43084914
:4017C0000B60002313700022064B1A700120FFF765FF0322044B1A7008BDC046AC02002020002C40C6020020AD02002008B5094B1B78DBB2042B06D0062B07D0022B07D143
:40180000FFF7F2FE04E0FFF7C1FF01E0FFF7CEFF08BDC046C602002008B5264B1B68DA0643D51A060CD50F221340012B14D1FFF747FF214B1B785BB2002B0FDB012310E021
:401840005A0603D5FFF7D2FF01230AE09B0607D5FFF780FF012304E0002302E0002300E00023002B21D0134B1B681B061DD4134B1B78134A12781343124A136012689A42D4
:4018800013D10D4B1B78DBB20A4A1268120607D4094B1B78DBB2074A136013680F221340054A1278D2B29A42EBD10422064B1A6008BDC046A0002C40AD020020C202002064
:4018C0003D030020A4002C4020202C400022064B1A80064B9B68002B05D0044A916800230B7092685380704742030020B402002008B5114B1B889BB2002B02D1FFF75AFE72
:4019000018E002220D4B1A7000220D4B1A70FFF7DDFF0C4AD3699BB21B029BB2926992B21343054A128892B29A4201D9024A1380FFF7F2FD012008BDB4020020C6020020AA
:40194000C202002000002C4008B504220D4B1A707C320D4B1A70FFF7B9FF0C4AD3699BB21B029BB2926992B21343094A128892B29A4201D9064A13800B22064B1A70012043
:4019800008BDC046C6020020C202002000002C40B4020020AD0200200122094B1A60094B9B6C094B1A7B03231340012B04D0064AD17B80234B40D3730122034B5A737047CC
:4019C0002C002C40F0FF2B40D002002002220A4B1A608823094AD358094B1A7E03231340012B04D0064AD17E80234B40D3760122034B5A767047C0462C002C40F0FF2B407C
:401A0000D00200200122014B1A60704720202C4008B50222024B1A60FFF7D4FC08BDC04620202C4038B50D4B1D682B0601D5002398470F242C40FF231B022B40DB081C4325
:401A4000002507E0E30703D5AB00054A9B58984764080135002CF5D138BDC04634202C402447000038B50D4B1D682B0601D5002398470F242C40FF231B022B40DB081C43B4
:401A8000002507E0E30703D5AB00054A9B58984764080135002CF5D138BDC04638202C402447000038B50D4B1D682B0601D5002398470F242C40FF231B022B40DB081C4370
:401AC000002507E0E30703D5AB00054A9B58984764080135002CF5D138BDC0463C202C402447000008B50C4B18780138C0B200F0CFF90A4B1B69FF221A40931CDB00C018CD
:401B00004168074B9B5CDB00CB185B68596A0B78044A1380516008BDC502002000002C40B0020020B402002008B50E4B18780138C0B200F0ADF90C4B1B69FF221A40931CAE
:401B4000DB00C0184168094B9B5CDB00CB185B68DB695A78120219780A4305490A8002334B6008BDC502002000002C40B0020020B402002038B500221C4B1A801C4B1878B6
:401B80000138C0B200F084F91A4BD968CCB21B69DDB2FF221A40931CDB00C0184068012D22D8154B9B5CDB00C3185B68013C022C1AD8FF221140114A94466144C900591876
:401BC0000C4B9B68DAB2087890420DD34A68FF210B405900CB189B00D318044A59685160198811809B68936038BDC046B4020020C502002000002C40B0020020FFFFFF1FF4
:401C000008B55D4B1A69D1B21B681B0651D55A4B5B68022B2FD002D8012B22D08FE0032B3AD0062B00D08AE0534BDB68212B0AD1FFF758FF514B1B889BB2002B00D180E094
:401C4000FFF756FE96E04C4BDB68222B7BD1FFF76BFF4A4B1B889BB2002B76D0FFF748FE88E0FFF787FF454B1B889BB2002B6ED0FFF73EFE7EE001296BD83F4B9B68002B1D
:401C800069D13E4901330B80FE331A403C4BD2184A60FFF72DFE6DE001295ED8374901230B80FE331A40374BD2184A60FFF720FE60E0314B5B680A2B0DD00B2B2FD0092B52
:401CC0004DD1FFF757FF2D4B1B889BB2002B48D0FFF73AFE4EE0012945D8274B9B68002B43D1FF331A40244BDB68DBB224498B548B5C2549895CDBB28B4203D20021224B6A
:401D0000995409E0204B9B5CDBB2012B04D91C4B9B5CDBB21C498B54FFF7AAFC2AE0012925D8154B9B68012B23D8FF231A40124B9B68DBB213498B54FFF79AFC1AE0002005
:401D400018E0002016E0002014E0002012E0002010E000200EE000200CE000200AE0002008E0002006E0002004E0002002E0002000E0002008BDC04600002C40B4020020BA
:401D8000440300204C0300204803002008B501F05BFC08BDF0B589B003AB164A32CA32C3191C13680B6013790B71002820D0041C222303701F3B437001A801F0D5FE00208E
:401DC000022313E001AA125C110903AD695CE154591C611800260E70991C0F273A40AA5C6254DA1CA218167001300433212BE9D909B0F0BD8847000010B5012337E09A01BF
:401E00000C201E4950505A00D21892001C498A185279002A15D05A00D21892008A18127952B2002A06DA9A0116498C4662440C2191600CE09A0113498C46624408219160A2
:401E400005E09A010F498C466244802191605A00D21892000A498A18D18889B298010A4C0419A160D28892B2074942500133082BC5D9FF22054B1A6010BDC046C0012C40A4
:401E8000D0020020F0FF2B40D0112C4028002C40074B1B78DB00074AD3185B681A7C824203D9C0001818406900E000207047C046C002002060490000F0B557464E464546BE
:401EC000E0B43F4B1B78002B75D03D4B18780138C0B2FFF7DDFF047AC3683A4A1078C0B2002266E01978814261D13749095CC9B25D78A9425BD199787F252940DD7803272E
:401F00002F40BA46314DAC464E007518AD006544A9460027EF709F782F71DF78B8467618B60067464546F5559E884D462E8102255D57002D0EDA5546012D01D1072700E049
:401F40000D274D006D18AD00204E75196F7101266E700DE05546012D01D1052700E009274D006D18AD00194E75196F7100266E708D01174EB146A94401264F46BE604E00B2
:401F800071188900114E71180E89360AB046104E4746AF510E89F6B24F467E60CE88B6B20C4FEF19BE60C98889B20A4EA95108330132A24296D31CBC90469946A246F0BDC3
:401FC000C5020020C1020020B0020020D0020020F0FF2B40D0112C40034B1B78DB00034AD31858687047C046C00200206049000008B5084B18780138C0B2FFF749FF0028FF
:4020000006D043681B790233DB00C018406800E0002008BDC5020020F8B54F464646C0B4002111E06A4E4B005A189200002494555A189200B2189470D47000251481957210
:40204000557055710131C9B20829EBD9002808D10AE000225F49CA545F49CA540133DBB200E00023012BF4D95C4B1B78002B00D1AAE05A4B18780138C0B2FFF709FF814678
:402080004368DB795B0605D5554A117801230B43137004E0524A137801218B4313704B461E7A012461E04B46D968002359E08A787F252A40944251D1251C62001219920026
:4020C000434FBA18128992B28F88BA4206D26200121992003E488446624417810A783D4FBA5CD2B24F78BA4238D18A789046384A94466A005719BF00674440463871CF78A3
:402100005219920060461754CA7803273A400227CF57002F11DA012A02D10632904601E00D2290462A4A94466A005719BF0067444046787101227A7010E0012A02D104321E
:40214000904601E009229046214F6A0052199200BA1840465071151C00226A7008310133DBB2B342A3D30134E4B2082C9BD94B46D96800220CE08B787F20034008785C0011
:40218000E3189B00124CE318987208310132D2B2B242F0D3FFF72CFF124B1860002301210EE00B4C4A00501880002018C3800289D3189AB2012313409B189BB20131C9B26C
:4021C0000829EED9FFF718FE0CBC90469946F8BDD0020020B002002040030020C5020020C3020020CC02002008B5164B1B697F2213405A1E072A22D85A00D218920012495E
:402200008A1890780121014391700021D1705078023101435170127952B2002A06DA9B010A4A944663448D229A6005E09B01074A9446634489229A60FFF71AFA00E0002076
:4022400008BDC04600002C40D0020020F0FF2B4010B5274B1B697F2213405A1E072A45D85A00D218920023498A1891780120814391700021D1709901812464421E480C508A
:402280005178022081435170127952B2002A15DA5A00D218920017498A185278012A06D19B01154A944663440C229A601BE09B01114A944663440D229A6014E05A00D218EA
:4022C00092000C498A185278012A06D19B010A4A9446634408229A6005E09B01064A9446634409229A60FFF7C3F900E0002010BD00002C40D0020020F0FF2B4038B50F4BFF
:402300001C69E5B20E4B18780138C0B2FFF7C0FD43681B799D4201D9022D0CD8FF2323400849CA5CD2B20848C254044A9268D2B2CA54012000E0002038BDC04600002C40D7
:40234000C5020020B00200204003002010B5B24B1B680021B14A11801A0600D4A1E0AE4A5268062A0AD002D8002A5ED035E1082A00D183E00A2A00D188E02EE1A64BDB68C0
:40238000012B09D1FFF728FE4268A44B5A6012221A80FFF7ADFA3DE19F4BDB68022B14D19D4B9868C0B2FFF773FD002800D116E143689A4A53605368DB781B025168897809
:4023C0000B431380FFF794FA24E1934BDB68032B05D027E0117852180133DBB201E000238F4A8D498968994202D911780029F1D1894B9B68002B0AD0874B9968894B1B7CAC
:40240000994204D1884C201CFFF7C4FC221C1378002B00D1E5E0137880490B804A60FFF767FAF7E001F0AAFCF4E00322134017D0022B00D0D7E079490B80774B1B697C3226
:4024400013405A00D3189B00784AD3189A78D2B2774B1A7000225A704B60FFF749FAD9E06E4902230B80734B1A78D2B2704B1A7000225A704B60FFF73BFACBE0674B01224F
:402480001A806D4A5A60FFF733FAC3E0634A01231380614B1969694BCB185360FFF728FAB8E05D4A52680B2A00D99EE0920064498A589746584B9B68DBB2624A1370FFF77C
:4024C000D7F8A7E0544B9C68002C03D0601EC0B2FFF7DEFC002C01D0002802D1002C00D085E0554B1B78DBB2A34208D0E4B2524B1C700122544B1A700120FFF78DFDFFF7AC
:40250000B7F887E0FFF7FAFE002872D0424B1A691B69DBB24D490B704D4B9B5C47498A5CDBB2934204D00122474B1A70FFF7C4FCFFF79EF86EE003221340012B16D0002B3C
:4025400008D0022B57D1344B9B68002B55D1FFF77FFE5FE0304B9B68012B50D1354A137802218B431370FFF783F853E02A4B1B69012B46D8284B98681A6936498B5C834357
:402580008B54FFF775F845E003221340012B16D0002B08D0022B36D11F4B9B68002B34D1FFF722FE36E01C4B9B68012B2FD1214A117801330B431370FFF75AF82AE0164BE8
:4025C0001B69012B25D8144B98681A6921498B5C83438B54FFF74CF81CE000201AE0002018E0002016E0002014E0002012E0002010E000200EE000200CE000200AE000205E
:4026000008E0002006E0002004E0002002E0002000E0002010BDC04600002C40B4020020D04A0000584C0000AC040020D0020020D8010020C3020020C5020020B00200205A
:4026400058470000AC020020C4020020C102002040030020C8020020034B1B681B0601D5014B5B680020704700002C4038B517480368DBB2164A13700F24A343191C154DE6
:402680002A780F2313400B43F02293431A1C2B78A34313430360104A104B1A60104A114B1A60114A1168114B0B40C021C9000B431360122001F08EF812200D4901F096F850
:4026C0001220032101F0A4F838BDC04600FF28405003002062F2FF0F00020001080028400008A0010400284000040240FFF0FFFF2D30000008B500F0E7FF00F0BBFF00204B
:40270000002100F0C3FF0020002100F0E9FFFF2000F0A2FF402000F0C9FF044A136804490B431360122001F04BF808BD0400284000100880024B1878012318407047C046C9
:40274000DC0100204000024B181880887047C046DC010020F8B5104F3C5C3818027C55005519EDB29200D6B200F0D3FFA4003B191C6A22680F21B1408A43111C0422B240F2
:402780000A435E6D33680721A9408B433360226000F0C3FFF8BDC0469C470000F8B51A490C5C0B181E7CB200D2B275007519EDB2164B185CA300CB181F6A3B680F2191408D
:4027C0008B433B60022800D10020012801D1002700E0062700F09DFFA4000B4B1B19596D0B680722AA409343AF403D1C1D430D6000F093FF064B1C19A1680B680122B2409C
:4028000093430B60F8BDC0469C4700008C0300201C48000010B5002403E0201CFFF7BEFF01340C2CF9D910BD03231840024B1A68400210431860704704002840CA08072366
:402840001940063B8B40191C835C194201D0012000E000207047C04610B5041C0134E4B20D2C06D004481830211CFFF7E7FF0028F4D0201C10BDC046E0000020F8B5041CA1
:40288000394B3C331D5CAA00384BD6583848211CFFF7D4FF374B9E4203D88640FF200004064300F011FF00F0E5FE334B185D013880B2002100F0EAFE304B185D013880B2D7
:4028C000002100F00DFFFF2000F0C6FE402000F0EDFE2B4BDB7F002B1ED0122000F07AFF284B19688023994340220A43234B1F5D214B1B5D9C463B03DB1B1B04AD001B48F4
:40290000285865466843834201D2C0220A431D4B1A60122000F054FF122000F05BFF1A490A681A4B1A401A4B185D1A4B1B5D1B04034313430B60134F3D68174B1D40174B8E
:402940001D43122000F03CFF201CFFF703FF00F0E0FE041C3D60002000F0D2FE104B1E60201C00F0DAFEF8BD1C480000E000002054030020FFFFFEFF9C0300205C03002055
:40298000DC010020040028400800284000FF80FF6C0300207C030020FF1FDFFF20E020000C00284008B5054B00221A70C2B29A7781221A70FFF762FF08BDC046DC01002078
:4029C00010B50B4C00232370FF33A377A07FC0B2FFF742FFA077A37FDBB20C2B07D8217801220A432270A07FC0B2FFF747FF10BDDC01002038B5051C174B1C68A4B2430056
:402A0000164AD3189C80164B3C331B5C9B00154A9A58154B9A4208D81448291CFFF70EFF6B000E4AD31804419C80281CFFF7B6FE122000F0CFFE0E4A11680E4B0B40A0211A
:402A400009020B4313600C4A11680C4B0B401360122000F0B5FE38BD0C002840DC0100201C480000E0000020FFFFFEFF5403002004002840FF1FDFFF0800284000FF80FF3F
:402A800010B5CC0807231940063B8B40D9B2002A04D0041923781943217003E0041923788B43237010BDC04670B5061C002400250BE0301CFFF776FFFFF73CFE0128FBD09B
:402AC000301CFFF73FFE24180135002DF1D0A0B270BDC046014B19547047C0468C03002010B5002404E0201C0021FFF7F3FF01340C2CF8D9FFF7BAFD0020FFF795FEFFF7B1
:402B000089FE10BD08B520230C4AD35C002B05D1FFF7E6FF01212023084AD154FFF7EAFD00F028FB01212123044AD154044A13688021C9030B43136008BDC046DC0100207C
:402B400004002840F0B5002714E00C4BDE5D0C4BDB5D9E191A1C002404E08D5CA54200D92C1C0132B242F8D301E0CC540133B342FBD301378742E8D3F0BDC046A4480000DD
:402B80009C48000030B50C4B1A5C44000B4BE15A0B4BE1521D1800242C772C331C54002A05D0541E074B9A5C054B3C331A554000054BC15230BDC04658480000E001002038
:402BC0000002002030010020CC03002010B5041CFFF7E8FEFFF7AEFD0028FBD1201CFFF7D1FF10BD10B5002403E0201CFFF7EEFF01340C2CF9D910BD014B2C33185C704781
:402C000000020020F0B5474680B4051C274B1B5C274AD1180F7A2749CE5CD25C9046002B05D10122244B3C335A71052401E0013BDCB221484430291CFFF700FE002810D0C2
:402C40001D4B2C335B5DBE1BB34223DA1A4E301C4430291C0022FFF713FF3C364346335518E0154B2C335B5DBE19B3420EDB124A3C32135D013BDBB21355002B0AD10E4805
:402C80004430291C0122FFF7FBFE03E00A4B3C3342461A5508484430291CFFF7CFFD002800D0012004BC9046F0BDC0465848000030010020E80300200002002070B5084BE8
:402CC0001C5C1818057A2D190026201CFFF79AFF002800D001260134AC42F6D3301C70BD9C48000038B50025002406E0201CFFF7E5FF002800D001250134052CF6D9281C45
:402D000038BDC04670B5094D2C352D180026FF20002308E0EC5C944203D9A64201D2261C181C0133DBB28B42F4D370BD00020020F0B583B0041C161C019308AB1878334ADA
:402D4000131C2C335B181D5D48325570002C09D19A19013A17782D4A4821575448325B78937017E0721E94420BD11B19013B1F78264B48229F541A1C2C32525C48339A7066
:402D800008E01B195A1E1778204A482157545B784832937048231D4AD35C834204D91B1A48221A498B5403E000214823174AD154164A483253781B1ADBB2537092788242B1
:402DC00004D9101A114A4832907003E000210F4A483291700D490A1C483292784820095C501AC9188918000201F0FAF92402041901D53602A4196B460420185E4443FE237F
:402E0000DB01E018000CC0B203B0F0BD00020020884202D9031C081C191C914200D9111C0B1C814200D2031C98B27047F0B5474680B484B0041C214B1A1C2032175C204A61
:402E4000165C1218157A1B181A7A301C291CFFF759FFFF2828D01B4B1B5D0093311C2A1CC8235B01FFF764FF051C80B27C1CE4B2124B2033DB5D002B07D1104B20331D5532
:402E800001341D550122DA5513E00C4E2036335D98466A46D381D189671CF25DFFF7B8FF4346F355355504E00022044B2033DA55054804B004BC9046F0BDC046300100205E
:402EC0009C480000AC030020FFFF000043184900C818800880B27047F0B5474680B482B0041C3C4B1E5C3C4B9B5D019342003B4BD75A24233A4AD35C002B09D0394D4300A0
:402F00009846595B381CFFF7E1FF071C43465853E1B23548314A01F055F86300334A9A5ABA4207D80021324B1955BD1AADB20123984603E0D51BADB2002398464346002BDB
:402F400015D12C4B9B5DAB4211D2294B1B5D244A1219127C934206D3201CFFF713FE0022234B1A551CE00133214A135518E06B469B88AB4206D21F4B9B5DAB4210D94346D4
:402F8000002B0DD11302194801190E7F3343FF18BF1A3A0A6300C2520F770022144B1A556B469E88AE420DD24346002B0AD0FF2D04D9FF220D4B2C331A5507E00B4B2C3334
:402FC0001D5503E00022094B2C331A5502B004BC9046F0BD58480000AC030020E001002030010020CC0300207404002000020020B4030020C403002010B5041C00F064F8EA
:40300000201CFFF769FF10BD10B5002409E00648211CFFF713FC002802D0201CFFF7ECFF01340C2CF3D910BDF800002010B5122000F0D0FB01221E4B1A601E4B1878C0B26F
:40304000FFF7D8FC1C4B1B785BB2002B05DA1A4A137801218B43137026E0164C2078C0B2FFF7FAFB20702378DBB20C2B05D8114B1878C0B2FFF702FC16E00F4B1A78012194
:403080008A431A701B785B060ED500220B4B1A7006E00B4AD15C0B4AD1540133074A1370064B1B78012BF4D9122000F089FB10BD14002840FA010020DC0100204C020020A4
:4030C00058030020F8000020064B1B5C064AD25C51080648C1540648C154D2080549CA547047C0465848000038010020AC030020C4030020E8030020024A136840218B4325
:403100001360704704002840044A1168044B0B40802189000B4313607047C04608002840FFFCFFFC38B5002208E00D498B5C5D080C4CA55401335B088B54013203789342A7
:40314000F3D8122000F046FB074A1168074B0B4007490B431360122000F032FB38BDC0466C0300207C03002008002840FFFCFFFC0002000170B5274B0D221A700621597088
:403180009A702332DA80244A9A80244A9A60FFF7B3FF002304E099002148224A885001331C4A52789A42F6D8002306E010211E4AD1540C391D4AD15401330C2BF6D9FFF79B
:4031C000A3FF144C1A4E201C311C00F05BFE194D0620291CFFF7B6FC201C00F064FE0122154B1A70201C311C00F04CFE0620291CFFF7A8FC201C00F077FE201CFFF792FF53
:40320000002403E0201CFFF75FFF01340C2CF9D970BDC04674040020CC040000AC4800000000FF0FE00000205C0300209C0300209A0D00006C030020FB01002008B500F0DE
:403240006DF808BD08B500F01DF808BD08B5044A1368802109060B431360FFF7EFFF08BD0000254008B5064B1B78002B04D1FFF7E9FF0122024B1A70FFF7E8FF08BDC04677
:403280004D020020134A144B1A600023134A1360012213490A600721124801601248016012490B6012490A601249134A1160134A13600421124A1160124A1360124A1360DB
:4032C000124A1360124A1360124A1360124A13607047C0460B00000200002540400025404800254000032540040325401003254044002540070000800002254004022540C3
:4033000050002540880E2540C80E2540480F2540080F2540C80F2540880F254003490B68F0229343603A13430B6070470003024038B5051C002402E000F04CFD0134285D2D
:403340000028F9D138BDC046034A1168034B0B408001184310607047080504403FFEFFFF034A1168034B0B40400218431060704708050440FFF1FFFF034A1168034B0B40B1
:40338000000318431060704708050440FF8FFFFF0004000C014B18607047C046480120400004000C014B18607047C046540120400004000C014B18607047C0464C012040ED
:4033C00038B5041C0D1C00F0A4F9AC40024B1C6000F0A3F938BDC0460800204008B500F098F9064A116802230B43136000F095F902201821FFF7E4FF08BDC046000020409C
:40340000014B18607047C0467801204010B50D4C8223DB042360236823600020FFF7B8FF236823600C22084B1A600020FFF7E8FF3122064B1A600648FFF7B2FF0548FFF7D6
:40344000B7FF10BD400120406401204068012040FFFF0000FF7F000008B5064B1B78002B04D1FFF7D3FF0122024B1A70FFF7B6FF08BDC0464E0200200004000C014B186001
:403480007047C046880120400004000C014B18607047C046940120400004000C014B18607047C0468C01204038B5041C0D1C00F030F9AC40024B1C6000F02FF938BDC0464B
:4034C0000800204008B500F024F9064A116804230B43136000F021F904201821FFF7E4FF08BDC04600002040014B18607047C046B801204010B50D4C8223DB042360236834
:4035000023600020FFF7B8FF236823600C22084B1A600020FFF7E8FF3122064B1A600648FFF7B2FF0548FFF7B7FF10BD80012040A4012040A8012040FFFF0000FF7F0000F1
:4035400008B5064B1B78002B04D1FFF7D3FF0122024B1A70FFF7B6FF08BDC0464F0200200004000C014B18607047C046080120400004000C014B18607047C0461401204001
:403580000004000C014B18607047C0460C01204038B5041C0D1C00F0BCF8AC40024B1C6000F0BBF838BDC0460800204008B500F0B0F8064A116801230B43136000F0ADF8E0
:4035C00001201821FFF7E4FF08BDC04600002040014B18607047C0463801204010B50D4C8223DB042360236823600020FFF7B8FF236823600C22084B1A600020FFF7E8FF4D
:403600003122064B1A600648FFF7B2FF0548FFF7B7FF10BD000120402401204028012040FFFF0000FF7F000008B5064B1B78002B04D1FFF7D3FF0122024B1A70FFF7B6FFB8
:4036400008BDC04650020020024A10680123184010607047100D0440044B1B68002BFBDB0002034B1843014B186070470000014040000080034B1B68002BFBDB024A014BE1
:403680001A607047000001404000004010B5064A13680724234000021843CB00FF2119400143116010BDC04600030140044B1B68002BFBDB0002034B1843014B1860704794
:4036C0000000014041000080034B1B68002BFBDB024A014B1A607047000001404100004010B5064A13680724234000021843CB00FF2119400143116010BDC04604030140DC
:403700000230800803D00138FDD1C046C046C0467047EFF3108072B6704780F310887047024A1168024B0B401360704700002240FFFFFFBF034B18688023DB05184000D0FB
:4037400001207047000022400A4A136801218B431360094B1A681E318A43084802601A688A4317390A431A60054A116802230B431360704750000C4034FF0B4054020020DE
:4037800024002C40064A136802218B43136005490B681F229343044A126813430B60704724002C4034FF0B4054020020034B1B680220184000D001207047C04624002C4025
:4037C0001F2318401E3B8340181C014B1860704700E100E01F2318401E3B8340181C014B1860704780E100E001BE704738B5041C0D1C1F2802D90020FFF7F6FFA400034B32
:403800009C4664442068256038BDC0464000002070B5041C0E1E032E02D90020FFF7E4FF1F2C02D90020FFF7DFFF03252540ED000635FFF76EFFA408A400074B9C466444C2
:4038400023680322AA409343AE40351C1D432560FFF763FF70BDC04600E400E010B5041C06E0084B1868FFF74BFF074B9C46644480231B029C42F4D8024B58686043FFF79B
:403880003FFF10BD680100200080FFFF30B583B000F0CCF900285BD0FFF73BFF041C2D4A116801230B43136000230AE02A4A11683F220A402949C95C8A4201D1033303E0BE
:4038C00001332D2BF2D90323254A1268D20606D1234802681F218A4313390A430260214A1168214A1140214A5A438020C00184466244D20B013A5205520D0A43A021490335
:403900001143192B02D81A490A430BE0194A9A1812781248C3189B7DD218FF2A00D9FF2292050A430F4B1A60134D2B680193302000F05EFA114A13688021C9050B431360A4
:403940001420FFF78BFF019B2B60201CFFF7E5FE03B030BD50000C402CFF0B401849000034FF0B400800224000F800C040420F000000D43F4DF3FF0F3000104000002240D0
:4039800008B5034B1B7A5843FFF7BAFE08BDC04668010020F0B55F4656464D464446F0B483B0041CFFF7B5FE0190FFF7C3FE002804D0FFF7B5FE01239B4601E000239B4650
:4039C000182C01D0302C03D1FFF7DCFE012500E00025E71E2D2F00D985E04E4B1B78DBB2A34208D34C4B1B78DBB29A464B4B1B78DBB2994631E04A4B1B78DBB2A34208D3BD
:403A0000484B1B78DBB29A46474B1B78DBB2994623E0464B1B78DBB2A34208D3444B1B78DBB29A46434B1B78DBB2994615E0424B1B78DBB2A34208D3404B1B78DBB29A46E5
:403A40003F4B1B78DBB2994607E03E4B1B78DBB29A463D4B1B78DBB299463C4BDB5D98462F2B09D92A2C07D91922394B1A600520FFF746FE192603E0354B1E683F231E4037
:403A8000B04506D2314BDA5D314B1A600520FFF737FE012D05D1302C03D12E4B1B78DBB20CE0012D05D1182C03D12B4B1B78DBB204E0254B9C4664442378DBB2274A1360EB
:403AC000274B52461A60274B4A461A600520FFF757FFB0450AD91D4BDA5D1D4B1A600520FFF70EFE02E00020FFF77EFE5B46012B01D1FFF7CBFE012D01D1FFF725FE019851
:403B0000FFF70BFE03B03CBC90469946A246AB46F0BDC04640F3FF0F41F3FF0F42F3FF0F43F3FF0F44F3FF0F45F3FF0F46F3FF0F47F3FF0F48F3FF0F49F3FF0F4AF3FF0F98
:403B40004BF3FF0F4CF3FF0F4DF3FF0F184900002CFF0B403FF3FF0F3EF3FF0F28FF0B401CFF0B4020FF0B40134B1B78DAB20260124B1B781B0213430360114A1278120426
:403B8000134303600F4A12781206134303600E4B1B78DAB242600D4B1B781B02134343600B4A12781204134343600A4A12781206134343607047C04678F2FF0F79F2FF0FF2
:403BC0007AF2FF0F7BF2FF0F7CF2FF0F7DF2FF0F7EF2FF0F7FF2FF0F034B1868C0231B02184000D00120704700010B4010B50D4B1A6801218A431A601A68022082431A60D5
:403C0000094A10683024A043203C204310601068093CA043014311601A68802109060A431A6010BD00002240000F2240034B1B68002B01DA012000E0002070470000224054
:403C400008B5FFF766FD044A1368C02109020B431360FFF762FD08BD00010B4010B5FFF758FD08490A68084B1A408024E40122430A600A6813408022120213430B60FFF748
:403C80004CFD10BD00010B40FF3FFFFF70B5061CFFF73FFD041CFFF79FFF002803D0FFF7DDFF012500E000250848331C0340084A106808490840184310601368012D01D1B6
:403CC000FFF7BEFF201CFFF728FD70BD0404040010020B40FBFBFBFF10B5244B1B685B0715D5234B1B685B070ED5224B9969042001401F4C22688A4322609A6982439A6120
:403D0000DB68002B00D098470420FFF7BFFF174B1B685B0518D5164B1B685B0510D5154B99698022D2001140114802688A4302609969114A0A409A611B69002B00D098471A
:403D40008020C000FFF7A2FF084B1B685B030CD5074B1B685B0304D5064B5B69002B00D098478020C002FFF791FF10BD10020B407801002070020020FFFBFFFF08B5124BED
:403D80001B6803221340012B02D0022B04D010E00D4B1B69DBB20DE00B4B1B697F2213405A00D3189B00094AD31808339B78DBB200E00023064A1268D35C032B02D1FDF70B
:403DC0001FFF00E0002008BD00002C40D0020020CC020020044B1B681F221340082BF9D0024B18607047C046080225404002254038B5041CFFF78DFC051C102C05D8104A7A
:403E0000136803218B43136016E0202C07D80C490B6803229343023A13430B600CE0302C07D807490B6803229343013A13430B6002E00020FFF7D8FC281CFFF76EFC38BD7B
:403E400030001040F7B59C180023071C08268025019100922370237800982B432370BB689B6C9847019B984202D22378AB432370013E6D08002EEED12378F82B01D9F8239B
:403E80002370F7BD70B5051C0E1C00242B789C4208D2AB68221C281C311C1B68FFF7D2FF0134F3E770BD38B5051C00242B789C4219D2AA6813681B5DDB080F2B00D90F2399
:403EC000D16BD268C95C1155AA68042B04D9936D906B211C012203E0936D906B211C002298470134E2E738BDF0B5041C002687B063789E4262D2A3685A6C925D0392002AA9
:403F000001D1013203921A6C925D019201992278914251D29A689B69515C0F221140B2000492002205910499019D5A50019B5B000293039B019A9B189D423DD2A768E388BB
:403F4000A0885843FB68595D00F04AF93B68595D00F0B6F8059B5843194B40005A2802D95B084008FAE7BA6904991B0C1B045350A36882085B6B01215855A368C008DB6989
:403F8000029F5A550F22A36849421B6A5855A3685B6A5A55A368986AC1530021D86AC153186B9B68C1535B19197801350A401A703B1C02330293BCE7013699E707B0F0BD19
:403FC0000000FFFFF0B585684E002B6B925B9B191C8887B0141B0094AC6A1A80A45B6B6A0294EC6A5F5CA45B2B6A03946C6B7F00645C5B180494AC680193645C1B78059403
:40400000009CE40FA4460F24251C6744009C3D40AC46E51764196C409C4203D2012B05D0013B00E00133FF273F2B00D89F00019D2B7065460F2D29D0002D24D0BC4225D878
:40404000059C029F24090094974200D9171C039D954200D2151C009A092A01D8141C01343A1C0A2C14D1EA1B934206D9049A92089A42924152429B1A00E001338268D26940
:4040800053543A1C04E0151C644601E0151C00246746836824015B6A5F5483689F6ABA53DA6A9B6895530F225B181D782A401A7083689B6859180B781C430C7007B0F0BD5B
:4040C000002243088B4274D303098B425FD3030A8B4244D3030B8B4228D3030C8B420DD3FF22090212BA030C8B4202D31212090265D0030B8B4219D300E0090AC30B8B424F
:4041000001D3CB03C01A5241830B8B4201D38B03C01A5241430B8B4201D34B03C01A5241030B8B4201D30B03C01A5241C30A8B4201D3CB02C01A5241830A8B4201D38B020F
:40414000C01A5241430A8B4201D34B02C01A5241030A8B4201D30B02C01A5241CDD2C3098B4201D3CB01C01A524183098B4201D38B01C01A524143098B4201D34B01C01A84
:40418000524103098B4201D30B01C01A5241C3088B4201D3CB00C01A524183088B4201D38B00C01A524143088B4201D34B00C01A5241411A00D20146524110467047FFE7E0
:4041C00001B5002000F0FCF802BDC0460029F7D003B5FFF775FF0EBC4243891A1847C04603460B437FD4002243088B4274D303098B425FD3030A8B4244D3030B8B4228D39A
:40420000030C8B420DD3FF22090212BA030C8B4202D31212090265D0030B8B4219D300E0090AC30B8B4201D3CB03C01A5241830B8B4201D38B03C01A5241430B8B4201D338
:404240004B03C01A5241030B8B4201D30B03C01A5241C30A8B4201D3CB02C01A5241830A8B4201D38B02C01A5241430A8B4201D34B02C01A5241030A8B4201D30B02C01A4C
:404280005241CDD2C3098B4201D3CB01C01A524183098B4201D38B01C01A524143098B4201D34B01C01A524103098B4201D30B01C01A5241C3088B4201D3CB00C01A524190
:4042C00083088B4201D38B00C01A524143088B4201D34B00C01A5241411A00D201465241104670475DE0CA0F00D04942031000D34042534000229C4603098B422DD3030A8C
:404300008B4212D3FC22890112BA030A8B420CD3890192118B4208D3890192118B4204D389013AD0921100E08909C3098B4201D3CB01C01A524183098B4201D38B01C01A16
:40434000524143098B4201D34B01C01A524103098B4201D30B01C01A5241C3088B4201D3CB00C01A524183088B4201D38B00C01A5241D9D243088B4201D34B00C01A5241C7
:40438000411A00D20146634652415B10104601D34042002B00D54942704763465B1000D3404201B5002000F00BF802BD0029F8D003B5FFF715FF0EBC4243891A1847C046F9
:4043C0007047C0460E4B70B500251E1C0D4CE41AA410A54204D0AB00F35898470135F8E700F044FC084B00251E1C084CE41AA410A54204D0AB00F35898470135F8E770BDB9
:40440000784C0000784C0000784C0000804C0000031C8218934202D019700133FAE77047000000004170706C69636174696F6E205374617274732E2E2E0A0D0055534220EF
:40444000446973636F6E6E6563746564200A0D00484944204472697665727320496E7374616C6C6564200A0D000000007E040000A8040000BE040000D6040000EC040000AD
:4044800002050000180500003005000092040000EA050000B2050000BA050000C2050000CA050000D2050000DA050000E20500003A060000020600000A0600001206000005
:4044C0001A060000220600002A060000320600005C0800003A0800004A0800005C080000420800003E080000460800005C080000560800006808000050080000000E00003A
:40450000000B00001C0B00009E0B0000240C0000DE0C0000A00D0000D20D00000000090012001B0024002C0035003E0047004F0058006000680070007800800088008F00CC
:4045400096009E00A500AB00B200B800BE00C400CA00CF00D400D900DE00E200E600EA00ED00F100F300F600F800FA00FC00FE00FF00FF000001000110000000040000002E
:40458000010000000800000002000000020000000300000005000000070000000B0000006E0F0000840F00009A0F0000D20F00000A1000003A100000421000004A1000002A
:4045C0005A1000004C65667420436C69636B0A0D00000000526967687420436C69636B0A0D0000004D6964646C6520436C69636B0A0D00004C6566742053776970650A0D58
:404600000000000052696768742053776970650A0D00000055702053776970650A0D0000446F776E2053776970650A0D000000004F7574776172642053776970650A0D003D
:40464000496E6E657220436C6F636B776973650A0D000000496E6E657220436F756E7465722D436C6F636B776973650A0D0000004F7574657220436C6F636B776973650AA2
:404680000D0000004F7574657220436F756E7465722D436C6F636B776973650A0D00000000300F40000800400F40000804320F4001330F4001350F4001370F4007400F402E
:4046C00003410F4007420F4002430F4002450F4006460F4004470F40B80ABE05D804DF0118A0B450E28054085C205F086801D440D6A0DA409C209F08A4091008130814200E
:404700009C209F08A409C4708801A4015020D40438043C049004B424CE03EC0A2D088908CA01E201051A0000111A000019180000000000000000000099190000CD19000089
:40474000000000000000000000000000000000000000000000000000EA25000036250000EA25000088250000EA250000B4240000EA250000EA250000EA250000C424000017
:40478000EA2500000425000030313233343536373839414243444546000000000404040400070707000007070700000005070406060403020100070605000000000002406B
:4047C000000102400002024000030240000402400005024000060240000702400008024000090240000A0240000B0240000C0240080004400801044008020440080304401D
:40480000080404400805044008060440080704400808044008090440080A0440080B0440080C04400000044000010440000204400003044000040440000504400006044093
:40484000000704400008044000090440000A0440000B0440000C04400102030405000000000000000000000020000000800000001000000040000000400000001000000018
:4048800008000000040000000200000001000000800000004000000020000000050001020304000008010101010100006C0300207C030020580100205C0300209C03002008
:4048C00058480000E00000202C040020F00300200004002058040020100400203C0400208004002054030020084900009C480000A4480000A92A00007D2800004527000061
:404900003D280000812A000004040408080808101010101010101010030405060708090A0B0C0E0F101112131415161718191B1C1D1E1F2021222325262728292A2B2E2FEA
:404940003031323334350000EEDBC9B9AA9B8E82766B60564D443B332C241D17100A0400010000006849000001000000584C0000000000000000000001000000804900000F
:40498000010000001C4C000002000000AC49000001000000C449000001000000BC49000000000000A84900000303000000008103080003000100820308000300010000006B
:4049C000CC49000001000000004A000000000000F44900000000000000000000000000000000000001000000404A000001000000474C000005000000980400209404002082
:404A000000000000344A000000000000284A0000000000000000000001000000884A0000010000002E4C000002000000D0040020D404002009000000A004002090040020C9
:404A4000430005010902A1010901A100050919012903150025019503750181029501750581030501093009311581257F950275088106C0A10005010938950175081581251D
:404A80007F8106C0C00000003F0005010906A101050719E029E7150025017501950881029501750881019505750105081901290591029501750391019506750815002565B0
:404AC0000507190029658100C000000002030000040309042C0343007900700072006500730073002000530065006D00690063006F006E0064007500630074006F00720012
:404B0000360343005900380043004B00490054002D00300034003600200055005300420020004D006F007500730065002000440065006D006F0012034B00650079006200FE
:404B40006F006100720064000C034D006F007500730065002A0343005900380043004B00490054002D0030003400360020004B006500790062006F0061007200640024030C
:404B800043005900380043004B00490054002D0030003400360020004D006F00750073006500280343005900380043004B00490054002D0030003400360020004500780038
:404BC00061006D0070006C006500240343005900380043004B00490054002D003000340036002D004D006F007500730065002A0343005900380043004B00490054002D002A
:404C00003000340036002D004B006500790062006F006100720064000000000009023B00020107C032090400000103000005092111010001223F000705810308000A0904D7
:404C4000010001030000060921110100012243000705820308000A001201000200000008B40442F10000010280010000F8B5C046F8BC08BC9E467047C502000001110000B9
:404C8000F8B5C046F8BC08BC9E4670479D020000A04C0000C8000020B80000005803000000000000F401000001000000FF000000FF000000FF0000000000FF0F0000FF0F99
:404CC0000000FF0F0000FF0F0000FF0F0000FF0FFF1F00000804044008040440080404400804044008000440080704400807044008070440080004400800044008070440EE
:404D00000807044008070440010202020201000064C8C8C8C86400001E1E1E1E1E1E1E1E1E1E1E1E1E000000010000000100000008080808080808080808080808000000EB
:404D40000000C05D80BB000030000000006CDC0204040400000000000000000000000000000000000000000000000000000000000000000000000000000000000000000055
:404D800000000000000000000000000000000000000000000000000000000000000000000000000000000000000000000000000000000000000000000000000000000000F3
:404DC00000000000000000000000000000000000000000000000000000000000000000000000000000000000000000000000000000000000000000000000000000000000B3
:404E00000000000000000000000000000000000000000000000000000000000000000000000000000000000000000000000000000000000000000000000000000000000072
:404E40000000000000000000000000000000000000000000000000000000000000000000000000000000000000000000000000000000000000000000000000000000000032
:020000040003F7
:0200000490303A
:02000000648B0F
:0200000490402A
:4000000000000000000000000000000000000000000000000000000000000000000000000000000000000000000000000000000000000000000000000000000000000000C0
:400040000000000000000000000000000000000000000000000000000000000000000000000000000000000000000000000000000000000000000000000000000000000080
:0200000490501A
:0C0000000002101311A00001102B762B41
:0200000490600A
:0100000001FE
:00000001FF